:020000040800F2
:100000000000032075730008A1190008A319000857
:10001000A5190008A7190008A91900080000000088
:10002000000000000000000000000000415D00082A
:10003000AB19000800000000D15D0008AD190008F0
:10004000C5730008C5730008C5730008C5730008B0
:10005000C5730008C5730008C5730008C5730008A0
:10006000C5730008C5730008C5730008C573000890
:10007000C5730008C5730008C5730008C573000880
:10008000C5730008C5730008111A0008C57300087D
:10009000C5730008C5730008C5730008C573000860
:1000A000C5730008B1190008C5730008C5730008BE
:1000B000D5190008E1190008ED190008C5730008FA
:1000C000C5730008C5730008C5730008C573000830
:1000D000C5730008C5730008C5730008C573000820
:1000E000C5730008C5730008C5730008C573000810
:1000F000C5730008C5730008C5730008C573000800
:10010000C5730008C5730008C5730008C5730008EF
:10011000C5730008C5730008C5730008C919000835
:10012000F9190008C5730008051A0008C57300080E
:10013000C5730008C5730008C5730008C5730008BF
:10014000C5730008C5730008C5730008BD19000811
:10015000C5730008C5730008C5730008C57300089F
:10016000C5730008C5730008C5730008C57300088F
:10017000C5730008C5730008C573000800000000BF
:10018000C5730008C5730008C5730008C57300086F
:10019000C5730008C5730008C5730008C57300085F
:0C01A000C5730008C5730008C573000893
:1001B00010B5054C237833B9044B13B10448AFF3A1
:1001C00000800123237010BDC80100200000000042
:1001D000E07B000808B5034B1BB103490348AFF3AC
:1001E000008008BD00000000CC010020E07B00087A
:1001F00081F0004102E000BF83F0004330B54FEAD8
:1002000041044FEA430594EA050F08BF90EA020F44
:100210001FBF54EA000C55EA020C7FEA645C7FEAD7
:10022000655C00F0E2804FEA5454D4EB5555B8BFFA
:100230006D420CDD2C4480EA020281EA030382EA6B
:10024000000083EA010180EA020281EA0303362DFD
:1002500088BF30BD11F0004F4FEA01314FF4801CD0
:100260004CEA113102D0404261EB410113F0004FE2
:100270004FEA03334CEA133302D0524263EB430399
:1002800094EA050F00F0A780A4F10104D5F1200E37
:100290000DDB02FA0EFC22FA05F2801841F1000192
:1002A00003FA0EF2801843FA05F359410EE0A5F166
:1002B00020050EF1200E012A03FA0EFC28BF4CF097
:1002C000020C43FA05F3C01851EBE37101F000454D
:1002D00007D54FF0000EDCF1000C7EEB00006EEB5A
:1002E0000101B1F5801F1BD3B1F5001F0CD34908E4
:1002F0005FEA30004FEA3C0C04F101044FEA44523B
:1003000012F5800F80F09A80BCF1004F08BF5FEAC1
:10031000500C50F1000041EB045141EA050130BDA1
:100320005FEA4C0C404141EB010111F4801FA4F144
:100330000104E9D191F0000F04BF01460020B1FA99
:1003400081F308BF2033A3F10B03B3F120020CDAD1
:100350000C3208DD02F1140CC2F10C0201FA0CF0AF
:1003600021FA02F10CE002F11402D8BFC2F1200C14
:1003700001FA02F120FA0CFCDCBF41EA0C019040CA
:10038000E41AA2BF01EB0451294330BD6FEA040413
:100390001F3C1CDA0C340EDC04F11404C4F12002FE
:1003A00020FA04F001FA02F340EA030021FA04F310
:1003B00045EA030130BDC4F10C04C4F1200220FA67
:1003C00002F001FA04F340EA0300294630BD21FAA5
:1003D00004F0294630BD94F0000F83F4801306BF6B
:1003E00081F480110134013D4EE77FEA645C18BF5F
:1003F0007FEA655C29D094EA050F08BF90EA020FF6
:1004000005D054EA000C04BF1946104630BD91EAED
:10041000030F1EBF0021002030BD5FEA545C05D1F0
:100420004000494128BF41F0004130BD14F580042F
:100430003CBF01F5801130BD01F0004545F0FE41A3
:1004400041F470014FF0000030BD7FEA645C1ABFD8
:10045000194610467FEA655C1CBF0B46024650EA0F
:10046000013406BF52EA033591EA030F41F400213B
:1004700030BD00BF90F0000F04BF0021704730B5C1
:100480004FF4806404F132044FF000054FF0000196
:1004900050E700BF90F0000F04BF0021704730B557
:1004A0004FF4806404F1320410F0004548BF40422C
:1004B0004FF000013EE700BF42004FEAE2014FEA81
:1004C00031014FEA02701FBF12F07F4393F07F4F5C
:1004D00081F06051704792F0000F14BF93F07F4F8E
:1004E000704730B54FF4607401F0004521F00041D1
:1004F00020E700BF50EA010208BF704730B54FF057
:1005000000050AE050EA010208BF704730B511F05B
:10051000004502D5404261EB41014FF4806404F193
:1005200032045FEA915C3FF4DCAE4FF003025FEA15
:10053000DC0C18BF03325FEADC0C18BF033202EB9D
:10054000DC02C2F1200300FA03FC20FA02F001FAF7
:1005500003FE40EA0E0021FA02F11444C1E600BF96
:1005600070B54FF0FF0C4CF4E06C1CEA11541DBF49
:100570001CEA135594EA0C0F95EA0C0F00F0DEF814
:100580002C4481EA030621EA4C5123EA4C5350EAF9
:10059000013518BF52EA033541F4801143F480134A
:1005A00038D0A0FB02CE4FF00005E1FB02E506F0DB
:1005B0000042E0FB03E54FF00006E1FB03569CF030
:1005C000000F18BF4EF0010EA4F1FF04B6F5007F36
:1005D00064F5407404D25FEA4E0E6D4146EB0606A8
:1005E00042EAC62141EA55514FEAC52040EA5E5031
:1005F0004FEACE2EB4F1FD0C88BFBCF5E06F1ED8DB
:10060000BEF1004F08BF5FEA500E50F1000041EB11
:10061000045170BD06F0004646EA010140EA0200BE
:1006200081EA0301B4EB5C04C2BFD4EB0C0541EAE0
:10063000045170BD41F480114FF0000E013C00F3F5
:10064000AB8014F1360FDEBF002001F0004170BD19
:10065000C4F10004203C35DA0C341BDC04F1140432
:10066000C4F1200500FA05F320FA04F001FA05F2BE
:1006700040EA020001F0004221F0004110EBD3708B
:1006800021FA04F642EB06015EEA430E08BF20EAB7
:10069000D37070BDC4F10C04C4F1200500FA04F35A
:1006A00020FA05F001FA04F240EA020001F00041EC
:1006B00010EBD37041F100015EEA430E08BF20EA5F
:1006C000D37070BDC4F1200500FA05F24EEA020EA7
:1006D00020FA04F301FA05F243EA020321FA04F0D6
:1006E00001F0004121FA04F220EA020000EBD3708D
:1006F0005EEA430E08BF20EAD37070BD94F0000F8D
:100700000FD101F00046400041EB010111F4801FC0
:1007100008BF013CF7D041EA060195F0000F18BF71
:10072000704703F00046520043EB030313F4801FAD
:1007300008BF013DF7D043EA0603704794EA0C0F67
:100740000CEA135518BF95EA0C0F0CD050EA41067D
:1007500018BF52EA4306D1D181EA030101F00041FA
:100760004FF0000070BD50EA410606BF1046194622
:1007700052EA430619D094EA0C0F02D150EA01362E
:1007800013D195EA0C0F05D152EA03361CBF10466F
:1007900019460AD181EA030101F0004141F0FE410E
:1007A00041F470014FF0000070BD41F0FE4141F492
:1007B000780170BD70B54FF0FF0C4CF4E06C1CEA92
:1007C00011541DBF1CEA135594EA0C0F95EA0C0F47
:1007D00000F0A7F8A4EB050481EA030E52EA033502
:1007E0004FEA013100F088804FEA03334FF0805523
:1007F00045EA131343EA12634FEA022245EA111550
:1008000045EA10654FEA00260EF000419D4208BF00
:10081000964244F1FD0404F5407402D25B084FEAAD
:100820003202B61A65EB03055B084FEA32024FF459
:1008300080104FF4002CB6EB020E75EB030E22BFB6
:10084000B61A754640EA0C005B084FEA3202B6EB76
:10085000020E75EB030E22BFB61A754640EA5C0025
:100860005B084FEA3202B6EB020E75EB030E22BFB5
:10087000B61A754640EA9C005B084FEA3202B6EBB6
:10088000020E75EB030E22BFB61A754640EADC0075
:1008900055EA060E18D04FEA051545EA16754FEAD7
:1008A00006164FEAC30343EA52734FEAC2025FEAF5
:1008B0001C1CC0D111F4801F0BD141EA00014FF084
:1008C00000004FF0004CB6E711F4801F04BF014355
:1008D0000020B4F1FD0C88BFBCF5E06F3FF6AFAE71
:1008E000B5EB030C04BFB6EB020C5FEA500C50F101
:1008F000000041EB045170BD0EF0004E4EEA113184
:1009000014EB5C04C2BFD4EB0C0541EA045170BD8A
:1009100041F480114FF0000E013C90E645EA060ECE
:100920008DE60CEA135594EA0C0F08BF95EA0C0FFC
:100930003FF43BAF94EA0C0F0AD150EA01347FF444
:1009400034AF95EA0C0F7FF425AF104619462CE71B
:1009500095EA0C0F06D152EA03353FF4FDAE10467E
:10096000194622E750EA410618BF52EA43067FF4CF
:10097000C5AE50EA41047FF40DAF52EA43057FF45F
:10098000EBAE12E74FF0FF3C06E000BF4FF0010C6A
:1009900002E000BF4FF0010C4DF804CD4FEA410CCE
:1009A0007FEA6C5C4FEA430C18BF7FEA6C5C1BD09B
:1009B00001B050EA410C0CBF52EA430C91EA030F1C
:1009C00002BF90EA020F0020704710F1000F91EA79
:1009D000030F58BF994208BF90422CBFD8176FEA47
:1009E000E37040F0010070474FEA410C7FEA6C5C15
:1009F00002D150EA013C07D14FEA430C7FEA6C5C1C
:100A0000D6D152EA033CD3D05DF8040B704700BF47
:100A10008446104662468C461946634600E000BF95
:100A200001B5FFF7B7FF002848BF10F1000F01BD67
:100A30004DF808EDFFF7F4FF0CBF012000205DF832
:100A400008FB00BF4DF808EDFFF7EAFF34BF0120B7
:100A500000205DF808FB00BF4DF808EDFFF7E0FF50
:100A600094BF012000205DF808FB00BF4DF808EDA1
:100A7000FFF7CEFF94BF012000205DF808FB00BF08
:100A80004DF808EDFFF7C4FF34BF012000205DF8EA
:100A900008FB00BF4FEA410C7FEA6C5C02D150EAD0
:100AA000013C0AD14FEA430C7FEA6C5C02D152EA66
:100AB000033C02D14FF0000070474FF00100704737
:100AC0004FEA4102B2F1E04324BFB3F5001CDCF170
:100AD000FE5C0DD901F0004C4FEAC0024CEA5070A8
:100AE000B2F1004F40EB830008BF20F001007047D7
:100AF00011F0804F21D113F13872BCBF01F00040DA
:100B0000704741F480114FEA5252C2F11802C2F10B
:100B1000200C10FA0CF320FA02F018BF40F001008C
:100B20004FEAC1234FEAD32303FA0CFC40EA0C003E
:100B300023FA02F34FEA4303CCE77FEA625307D17B
:100B400050EA01331EBF4FF0FE4040F440007047B2
:100B500001F0004040F0FE4040F40000704700BF4C
:100B600053B94AB9002908BF00281CBF4FF0FF3114
:100B70004FF0FF3000F07AB9ADF1080C6DE904CE0A
:100B800000F006F8DDF804E0DDE9022304B0704768
:100B90002DE9F0478C460D460446089E002B51D1A6
:100BA0008A4217466DD9B2FA82FEBEF1000F0BD011
:100BB000CEF1200C01FA0EF520FA0CFC02FA0EF729
:100BC0004CEA050C00FA0EF44FEA174A250CBCFB60
:100BD000FAF81FFA87F90AFB18CC45EA0C4508FB1E
:100BE00009F3AB420AD9ED1908F1FF3280F02381F5
:100BF000AB4240F22081A8F102083D44ED1AA4B2B4
:100C0000B5FBFAF00AFB105544EA054400FB09F96C
:100C1000A14509D9E41900F1FF3380F00A81A1450B
:100C200040F2078102383C44A4EB090440EA084042
:100C30000021002E61D024FA0EF40023346073608A
:100C4000BDE8F0878B4207D9002E54D0002186E8FA
:100C500021000846BDE8F087B3FA83F1002940F08F
:100C60008E80AB4202D3824200F2FA80841A65EB96
:100C700003050120AC46002E3FD086E81010BDE8E9
:100C8000F08712B90127B7FBF2F7B7FA87FEBEF17A
:100C9000000F34D1EB1B3A0C1FFA87FC0121B3FB88
:100CA000F2F8250C02FB183345EA03450CFB08F368
:100CB000AB4207D9ED1908F1FF3002D2AB4200F286
:100CC000D1808046ED1AA3B2B5FBF2F002FB1055BD
:100CD00043EA05440CFB00FCA44507D9E41900F1E4
:100CE000FF3302D2A44500F2B8801846A4EB0C04EE
:100CF00040EA08409DE731463046BDE8F087CEF136
:100D0000200405FA0EF307FA0EF720FA04F83A0C5D
:100D100025FA04F448EA0308B4FBF2F14FEA184557
:100D200002FB11441FFA87FC45EA044501FB0CF362
:100D3000AB4200FA0EF409D9ED1901F1FF3080F051
:100D40008A80AB4240F2878002393D44EB1A1FFA99
:100D500088F5B3FBF2F002FB103345EA034500FBD4
:100D60000CF3AB4207D9ED1900F1FF386FD2AB425B
:100D70006DD902383D44EB1A40EA01418FE7C1F1D9
:100D8000200722FA07F88B4005FA01F448EA03032A
:100D900020FA07FE4FEA134CFD404EEA040EB5FB65
:100DA000FCF94FEA1E440CFB19551FFA83F844EA7C
:100DB000054509FB08F4AC4202FA01F200FA01FA17
:100DC00008D9ED1809F1FF3043D2AC4241D9A9F15D
:100DD00002091D442D1B1FFA8EFEB5FBFCF00CFB17
:100DE00010554EEA054400FB08F8A04507D9E41861
:100DF00000F1FF3529D2A04527D902381C4440EA2A
:100E00000940A4EB0804A0FB02894C45C6464D46A8
:100E100015D312D056B1BAEB0E0364EB050404FAF5
:100E200007F7CB401F43CC40376074600021BDE81A
:100E3000F0871846F8E69046E0E6C245EAD2B8EBFD
:100E4000020E69EB03050138E4E72846D7E7404680
:100E500091E78146BEE7014678E702383C4445E722
:100E6000084608E7A8F102083D442BE7704700BF99
:100E700008B501F061F900F0D7FF01F0D9F80121C0
:100E8000084600F0FFFE0221012000F0FBFE00F00A
:100E90009FFF01F085F800F013FE00F05DFE00F00A
:100EA00015F94FF47A7004F0C6FDFAE770B594B006
:100EB0002A4B002101911A6C42F080521A641B6C7B
:100EC00003F080530193019B254B02911A6842F471
:100ED00040421A601B6803F440430293029B0123C3
:100EE00008934FF480330993082310934FF4A873A9
:100EF00002244FF48006119308A807230E940F963E
:100F00001294139302F084FD00B1FEE74FF4A05356
:100F100005900F25052103A80494039506930793D4
:100F200002F072FF044600B1FEE731464FF0E06286
:100F300002F0F0FE03F002F84FF47A73B0FBF3F026
:100F400001F0A6FC042001F0B9FC224629464FF02E
:100F5000FF3001F05DFC14B070BD00BF00380240EE
:100F60000070004084B0164B00220092196B41F0D3
:100F700080011963196B01F08001009100990192C1
:100F8000196B41F004011963196B01F0040101911F
:100F900001990292196B41F001011963196B01F07B
:100FA00001010291029903921A6B42F008021A633E
:100FB0001B6B03F008030393039B04B0704700BF4F
:100FC0000038024030B50C4D87B001F039F9FFF719
:100FD0006DFFFFF7C7FF0FCD01AC0FC42B68236077
:100FE000002101A804F00FFD044B186004F006FD79
:100FF000002007B030BD00BFF87B000888510120F9
:1010000002680C4B9A4210B5044601D101F032F946
:101010002368094A934204D1084A136801331360D4
:1010200010BD074A934203D1BDE8104000F0F0BD67
:1010300010BD00BF0000014000140040E40100208A
:1010400000080040014B1868704700BFE401002011
:1010500030B5002289B00121372001F0D9FB3720BB
:1010600001F00AFC0025144B02951A6C134C42F057
:1010700020021A641B6C03F02003029301A903A849
:10108000029B02F071FF02F05FFF0D4B236042F202
:101090000F73E36040000B4BB0FBF3F0013860606E
:1010A00020462561A56003F02BF910B9204602F017
:1010B000FDFF09B030BD00BF003802409051012053
:1010C0000014004080969800FEE7000044F21002F1
:1010D0000021014806F0B7B900000010F0B500B3D8
:1010E000F9B141F20103C35C1D2B1AD8041F023968
:1010F00000F57F76224631F8025F57683D4442F89A
:10110000045FB242F7D10133DBB241F201011E2B81
:10111000435406D16168B1FBF3F144F8041F9442D3
:10112000F8D1F0BDF8B52DED028B051F00F58066F6
:1011300000F57F744FF08047FA6B55F8041F36F8BE
:10114000023B07EE902A07EE101AF8EE677AB8EE27
:10115000477A67EE277A07EE103AB8EE477AC7EE7D
:10116000876A16EE900AFFF7A7F941EC100B06F01C
:1011700031FA51EC100BFFF7A3FC97ED0E8A07EE46
:10118000900AB8EE488AA54228EE278AFCEEC87A73
:1011900017EE903AA6F8FE31CED1BDEC028BF8BD29
:1011A0002DE9F0470429ADF5007D80460D4620D895
:1011B000F8B1DFF8F0A041F204044C430AEB040755
:1011C00007F5805901463846FFF788FF99F8000077
:1011D0000328564611D8043004EB40204FF4007227
:1011E0004146504406F024F999F80030013389F85B
:1011F00000300DF5007DBDE8F08704F5006004F5D2
:1012000020614FF4C0625144504406F011F904F5D6
:1012100060604FF400724146504406F009F94FF403
:1012200000720021684606F00EF904F2FE7304F61F
:10123000FE7453445444184600223DF8121030F80E
:1012400002EF71442DF812100132B2F5807FF4D113
:1012500003F50073A342EED100233DF8132092085A
:101260002DF813200133B3F5807FF6D104F07AFD19
:1012700041F2040303FB05654FF40072694605F56E
:10128000806006F0D5F804F08FFD41F20103EB5CBD
:101290001E2BAED138460DF5007DBDE8F047FFF7B7
:1012A00041BF00BF0000001003289FBF044B41F264
:1012B000040202FB003000F5806088BF0020704708
:1012C000000000102DE9F843551DEDB28146284677
:1012D000884616461F4604F025FC0446A0B1AA2302
:1012E0000370457080F8029032464146033006F0A4
:1012F0009FF800231A46A91E581C9BB28B4206DB9E
:10130000631923F8022C3D702046BDE8F883E35CA6
:101310001A4492B20346EFE72DE9F843B1F1000811
:10132000054617469946089E58DD1468002C0FDDC7
:101330000378AA2B2FD144450ADB08F1FF3422465B
:10134000691C284606F074F814B12B78AA2B30D10A
:1013500005F8049001343C600022042C3EDD2B781B
:10136000AA2B38D16B789C4235DBA3B3E81810F870
:10137000017C10F8021C284641EA07219F1EA0EBC1
:10138000050EBE4523DB8A4225D10EB1053B3360F5
:101390002846BDE8F88300216B5CAA2B02D00131FE
:1013A0008C42F9D1641A22462944284606F040F8B6
:1013B000C1E700216B5CAA2B02D001318C42F9DC21
:1013C000641A22462944284606F032F8C0E710F88D
:1013D00001EB7244D3E70135013CBEE70025D7E7B6
:1013E00073B5064600209DF818508DF80700A3B18C
:1013F0000B4C2170627019462A46A01C06F018F8A2
:10140000AA1C0DF10703D2B221463046FFF75AFF5E
:1014100018B19DF8071000F001FF02B070BD00BFC9
:10142000E8010020F7B5802506460F46144613460E
:1014300000950122FFF7D4FF631939463046009525
:101440000222FFF7CDFF04F5807339463046009540
:101450000322FFF7C5FF009504F5C0730422394647
:101460003046FFF7BDFF03B0F0BD07B502AB002269
:1014700003F8012D11460620FFF724FF18B19DF84F
:10148000071000F0CBFE03B05DF804FB70B5837865
:10149000803B0446062B00F28C80DFE803F0042733
:1014A000425A728A23004279037943EA0223C278BE
:1014B000013A032A7DD8DFE802F002060A0E4FF057
:1014C0008042536370BD4FF08042936370BD4FF014
:1014D0008042D36370BD4FF08042BDE8704013641A
:1014E00000F0C6BCBDE87040FFF7BFBFC578012D56
:1014F0000AD100F0BDFC0020E678FFF7D5FE3146AA
:1015000002462846FFF78EFFE478022C51D10020D6
:1015100000F02AFD214602460120BDE87040FFF799
:1015200081BFC578012D0AD100F0A2FC2846E678DB
:10153000FFF7BAFE314602460220FFF773FFE47858
:10154000022C36D1012000F00FFD21460246204634
:10155000E3E7C378012B0AD100F08AFC0220E5788A
:10156000FFF7A2FE294602460320FFF75BFFE4785F
:10157000022C1ED1204600F0F7FC21460246032033
:10158000CBE7C378012B0AD100F072FC0320E57889
:10159000FFF78AFE294602460420FFF743FFE4785E
:1015A000022C06D1032000F0DFFC21460246042075
:1015B000B3E770BD08B5032001F018F90022114609
:1015C0006FF00B0001F024F9002211466FF00A00C1
:1015D00001F01EF9002211466FF0090001F018F920
:1015E000002211466FF0040001F012F900221146AA
:1015F0006FF0030001F00CF900220F216FF00100E1
:1016000001F006F900220F214FF0FF30BDE808403D
:1016100001F0FEB8F0B50368B3F1804F8BB004461B
:1016200025D103F50E33002100911A6B364842F0A4
:1016300001021A631A6B02F001020092009A0191F2
:101640001A6C42F001021A641B6C03F0010301934F
:10165000019B022306930793032308930AA90123FE
:1016600009934FF4004341F8143D01F08DFC2268CA
:10167000264B9A4245D103F50D33002402941A6B90
:10168000234842F001021A631A6B02F0010202922F
:10169000029A03941A6B42F004021A631A6B02F066
:1016A00004020392039A04941A6C42F002021A6430
:1016B0001B6C03F0020304930AAE049B02230693FF
:1016C0000993402346F8143D012503273146089726
:1016D000079501F059FC0897314604270C480695F8
:1016E0000795059701F050FC2A463946084801F055
:1016F00037FD1D202246062101F08AF81D2001F049
:10170000BBF80BB0F0BD00BF000002400004004079
:101710000008024010B50268184B9A4288B02AD1DE
:1017200003F50C33002401941A6C154842F00402AE
:101730001A641A6C02F004020192019A02941A6B64
:1017400042F002021A631B6B03F002030293029B36
:10175000012308A90493059303230693022341F868
:10176000143D01F011FC1E2022460A2101F050F820
:101770001E2001F081F808B010BD00BF0008004035
:101780000004024070B502685E4B9A428CB0064677
:1017900058D1002503F58C3301951A6B5A485B4CE0
:1017A00042F001021A631A6B02F001020192019ADF
:1017B00002955A6C42F480725A645A6C02F4807238
:1017C0000292029A03951A6B42F480021A631B6B11
:1017D000099503F480030393039BA023079307A9B0
:1017E0000323089301F0D0FB2A460921122001F0BF
:1017F0000FF8122001F040F8454BA56084E828005E
:101800004FF4806323614FF4006363614FF400532E
:10181000A3614FF48073E3614FF4003323622046E9
:101820000123A362E5606562E562256301F068F863
:10183000B46338202A460A21A66300F0E9FF382065
:1018400001F01AF83268334B9A4259D10025324BD5
:1018500004951A6B2C48314C42F001021A631A6B42
:1018600002F001020492049A05955A6C42F4007247
:101870005A645A6C02F400720592059A06951A6B26
:1018800042F480021A631B6B099503F480030693EC
:10189000069B0C23079307A90323089301F074FB0D
:1018A00009212A46122000F0B3FF122000F0E4FFC5
:1018B0001B4AA5604FF0007384E80C004FF480636E
:1018C00023614FF4006363614FF40053A3614FF44D
:1018D0008073E3614FF40033236220460123A36247
:1018E000E5606562E562256301F00AF8B4633A20B9
:1018F0002A460A21A66300F08BFF3A2000F0BCFFC5
:101900000CB070BD0020014000000240E802002041
:1019100010640240002101400038024048030020CA
:101920004064024030B5014689B00022192000F021
:101930006FFF192000F0A0FF0025154B02955A6C8F
:10194000144C42F001025A645B6C03F001030293F1
:1019500001A903A8029B02F007FB02F0F5FA0E4B67
:10196000236040F2E733E36040000C4BB0FBF3F040
:101970000138606020462561A56002F0C1FC20B9F5
:10198000204602F093FB09B030BD0120FBE700BF09
:1019900000380240CC5101200000014040420F00BD
:1019A0007047FEE7FEE7FEE7FEE7704704F04BB83E
:1019B000014802F09EBB00BFCC510120014801F05C
:1019C00055BC00BF7C5A0120014802F092BB00BF09
:1019D00090510120014802F08CBB00BF68530120E8
:1019E000014802F086BB00BF30520120014802F0DE
:1019F00080BB00BF2C530120014B986B01F03CB819
:101A0000C8520120014B986B01F036B8705201208A
:101A1000014800F0B1BD00BFC85201200F49D1F804
:101A2000883043F47003C1F888300D4B1A680020E9
:101A300042F001021A6098601A6822F0847222F45F
:101A400080321A60074A5A601A6822F480221A60AB
:101A5000D8604FF000638B60704700BF00ED00E07E
:101A60000038024010300024F8B5124C124FA51C6B
:101A700000234FF0FF320F49386804F0A5FC01281D
:101A800014D12678012E07D100212846FFF788FBC4
:101A900031460A48FFF784FB2178022906D12846FF
:101AA000FFF77EFB03210548FFF77AFB0A2003F0CE
:101AB000C2FFDDE7AE0B00200C520120B00D00206C
:101AC00070B51D4B1D4D002686B0324640F20241D6
:101AD00002201E8004F03CFB194B18600FCD01ACB6
:101AE0000FC42B682360314601A803F08CFF154B0F
:101AF000154A18601548042380E80C00C723C3600A
:101B00000661866002F016FC18B13A211048FFF712
:101B1000DBFA10490D48602300220B6064238A60C1
:101B20000A614B6002F050FC18B144210848FFF7ED
:101B3000CBFA06B070BD00BF105201200C7C00082B
:101B40000C520120085201200004004030520120B4
:101B5000857C00081452012008B5084B0848002174
:101B60001980084B596202F0B7FC28B1522106488F
:101B7000BDE80840FFF7A8BA08BD00BFAC0B0020C5
:101B80003052012000040040857C000810B5014659
:101B9000094C0A48002322460068236004F0B2FB87
:101BA00023683BB1064B4FF080521A60BFF34F8F52
:101BB000BFF36F8F10BD00BFB00F00200C5201208B
:101BC00004ED00E002680F4B9A4210B519D10E4C9B
:101BD0002388B3F5F06F04D1002204210B4801F0F3
:101BE000BFFA2388B3F5F06F08D900F045FA012257
:101BF0000421064801F0B4FA00232380238801332E
:101C0000238010BD00040040AC0B002000080240FF
:101C100070B5194C2388FF2B23D800F0FDF805463A
:101C200000F0FEF8154B01221A702288298803EB78
:101C30004206C1F5805171806988C1F58051A6F8CE
:101C40000212022183F802140188C1F58051A6F81E
:101C5000041441880132C1F58051A6F8041622808F
:101C600070BD00F019FA0548FFF790FF0448FFF730
:101C70008DFF0023238070BD10520120A803002097
:101C8000AA070020012810B540F08E80012946D116
:101C90004648474B01614FF4403C80E8081002225F
:101CA00000238360816103624362C3628362C36015
:101CB000C2610163436100F003FB18B135213D4867
:101CC000FFF702FA3C4C3948052323600122A36048
:101CD000214600236260E36000F0EEFC18B13F2172
:101CE0003448FFF7F1F9072002210522002384E898
:101CF0000F0031492D4800F0DFFC18B148212D4874
:101D0000FFF7E2F902222D49284800F07DFB002868
:101D10004AD04C212748BDE81040FFF7D5B9022929
:101D200042D1274B274A18614FF4403C83E8041006
:101D300098610022186318469A601A625A62DA6241
:101D40009A62DA60D9615A6100F0BAFA18B160217A
:101D50001848FFF7B9F91C4C1948022201234FF02B
:101D6000050C4FF0000E214684E80C5000F0A4FC56
:101D700018B16A210F48FFF7A7F9032002210522B5
:101D8000002384E80F0010490D4800F095FC18B1BD
:101D900073210848FFF798F902220C49084800F01F
:101DA00033FB08B17721B5E710BD00BFC852012051
:101DB00000200140A87C0008B85201206C5201208C
:101DC00070520120002101401053012020530120B6
:101DD00008B502220A490B4800F016FB18B185210C
:101DE0000948FFF771F902220849094800F00CFB85
:101DF00028B188210448BDE80840FFF765B908BD4F
:101E00006C520120C8520120A87C000820530120F8
:101E10007052012070470000004870476C5201204A
:101E2000004870472053012030B5032287B00021BD
:101E3000012004F08DF90B4A106020B100231A46EE
:101E4000194604F0A9F9084D0FCD01AC0FC42B6859
:101E50002360002101A803F0D6FD044B186007B0F1
:101E600030BD00BF28530120207C000824530120EE
:101E7000034800231A461946006804F08DB900BFD4
:101E800028530120F7B502AD0026284C45F8046D13
:101E900000F02AFF2648F323E360022303610323B3
:101EA0008360294601230660C36001F01BF818B166
:101EB0004C212048FFF708F9236823F4806323604E
:101EC000236823F400732360236843F48053236062
:101ED000236823F480532360236843F40063236062
:101EE000236823F400632360236843F400732360B2
:101EF000236843F4806323600F4C0025E8B2FFF7AA
:101F0000D3F904F50077861E214636F8022F002308
:101F10000120023400F02EFFBC42F5D10135042D22
:101F2000ECD100F0F3FE03B0F0BD00BF003C024076
:101F3000B40F0020C57C000800C00008094C08B59B
:101F400000234FF0FF321946206804F03DFA0023C9
:101F50004FF0FF321946206804F036FAFFF792FF7F
:101F6000F5E700BF2853012003289ABF024B53F81E
:101F700020000020704700BFE47C000808B5002165
:101F8000054802F08FFA28B13E210448BDE8084018
:101F9000FFF79AB808BD00BF68530120FE7C000817
:101FA000204808234FF0804210B580E80C0043F62B
:101FB000FF73C36000230361836002F0BBF918B1B3
:101FC0001C211948FFF780F8184C1648602300229E
:101FD000236021466423A2602261636002F0F4F969
:101FE00018B125211048FFF76FF84FF480530422F1
:101FF0000E490C48636002F0E7F918B12A210A483B
:10200000FFF762F80223082208490648636002F0DD
:10201000DBF918B12F210448FFF756F8BDE810404E
:10202000FFF7ACBF68530120FE7C0008145201206A
:102030000E4808B50E4B036040F6B33200234360F0
:10204000C2600361836002F05BF918B15A2109484C
:10205000FFF73AF8054802F029F828B15E21054853
:10206000BDE80840FFF730B808BD00BF2C53012081
:1020700000080040FE7C000808B5054802F016F88C
:1020800028B169210348BDE80840FFF71DB808BD25
:102090002C530120FE7C000808B5054802F011F819
:1020A00028B174210348BDE80840FFF70DB808BD0A
:1020B0002C530120FE7C000870B50B4C0B4E0A49D6
:1020C000306800234FF0FF3204F07EF90128054606
:1020D000F5D1A188206802F0BDFF206803F0B0FDB3
:1020E000284603F0A8FCEAE7D00F0020AC530120FB
:1020F0007FB50D4D0D4E0E4C0B49306800234FF04F
:10210000FF3204F061F90128F6D103AA00922B787E
:10211000074A08484021FFF7FFF80028ECD00023C9
:102120002360FFF7B3F9E7E7CC0F0020A8530120A5
:10213000C80F0020E00F0020F0B5194B194C002704
:102140008BB03A46082140201F6004F001F83A465F
:1021500020600121402003F0FBFF134B134918605E
:102160002068134C264604F0F3F90FCE6D460FC5D8
:1021700033682B603946684603F045FC0D4B143438
:1021800018600FCC05AD0FC523682B60394605A834
:1021900003F039FC084B186002F014FF0BB0F0BDDF
:1021A000C80F0020AC530120A85301201E7D000859
:1021B000347C0008B0530120A45301202DE9F743DB
:1021C000134CDFF85480002306460F462360054673
:1021D000A1463A68AB1B9A420CD823683BB10D4B21
:1021E0004FF080521A60BFF34F8FBFF36F8F03B071
:1021F000BDE8F08315F8013B8DF807304A4600230F
:102200000DF10701D8F8000004F07CF8E1E700BF09
:102210002010002004ED00E0A853012010B4064C6B
:1022200020600648A180002321461A4600685DF818
:10223000044B03F0B1BF00BFD80F0020AC53012006
:1022400008B50B4B1A6842F400721A601A6842F41F
:1022500080621A601A6842F480721A60032000F0EB
:10226000C5FA0020FFF75EFBFFF7A4F9002008BDC8
:10227000003C0240034A044B11681B780B44136076
:10228000704700BFB453012004000020014B1868C0
:10229000704700BFB453012038B50446FFF7F6FF7E
:1022A000631C1CBF054B1B78054618BFE418FFF7DD
:1022B000EDFF401B8442FAD838BD00BF0400002067
:1022C00010B50446002800F09980036C23B94364DC
:1022D00080F83C30FFF756FA236CDB0600F18C8067
:1022E000236C23F4885323F0020343F00203236496
:1022F000434B5A6822F440325A605A6861680A4374
:102300005A60236821695A6822F480725A605A68B8
:1023100042EA01225A605A68A16822F040725A606B
:102320005A680A435A609A68E16822F400629A6027
:102330009A680A439A603349A26A8A4250D09968DF
:1023400021F07061996099680A439A609A68E16A1D
:1023500022F040529A609A680A439A609A68A1698A
:1023600022F002029A609A6842EA41029A60226A66
:10237000002A3DD05A68616A42F400625A605A6885
:1023800022F460425A605A68013942EA41325A6086
:10239000DA6AE16922F47002DA62DA6A013942EA41
:1023A0000152DA629A68216B22F400729A609A688C
:1023B00042EA41229A609A68616922F480629A60D6
:1023C0009A68002042EA81229A606064236C23F0BC
:1023D000030343F001032364002384F83C3010BD61
:1023E0009A6822F070629A609A6822F04052B4E7CC
:1023F0005A6822F40062CAE70120EDE7012010BD0F
:10240000002301400100000F37B51346002201925E
:1024100090F83C20012A044665D00568012280F826
:102420003C20AA68D20705D5AA68D00715D4002099
:1024300003B030BDAA6842F00102AA602B4A1068BE
:102440002B4AB0FBF2F000EB40000190019A002A09
:10245000EAD0019A013A0192F8E7206C20F4E0609A
:1024600020F0010040F4807020646A68520541BF8A
:10247000206C20F4405040F480502064226CA06B0B
:1024800012F480521CBF626C22F0060262640022C9
:1024900084F83C20174AC263174A0264174AC26490
:1024A0006FF022022A606A6842F080626A60AA685D
:1024B00042F48072AA600A4605F14C0100F09EFACF
:1024C0000F4B5B6813F01F0F236808D1986810F05A
:1024D0004050ACD19A6842F080429A60A8E7094A1D
:1024E0009342A4D1F2E70220A2E700BF000000203F
:1024F00040420F00092500086B250008A1260008AE
:102500000023014000200140836B1A6C12F0500F31
:1025100010B524D11A6C42F400721A641A689168DA
:1025200011F0405F17D19969A9B9D16A11F4700F00
:1025300002D0916849050ED4516821F02001516004
:102540001A6C22F480721A641A6CD2045EBF1A6C80
:1025500042F001021A641846FFF75CFC10BD9B6B49
:10256000BDE81040DB6C1847704708B5806BFFF77B
:10257000FBFF08BD7047704738B5036819685A6893
:102580008D0704462BD5900629D5226CD1065EBF57
:10259000226C42F4007222649A6812F0405F17D1F4
:1025A000A269AAB9DA6A12F4700F02D09A685205C9
:1025B0000ED45A6822F020025A60236C23F48073F0
:1025C0002364236CDB045EBF236C43F001032364AC
:1025D0002046FFF71FFC23686FF012021A60236881
:1025E00019685A684D0732D5100630D5226CD106CD
:1025F0005EBF226C42F4005222649A6812F4401FBB
:102600001ED19A6B12F4401F02D09A68520517D45B
:102610005A68550514D49A6812F0405F10D1A26927
:1026200072B95A6822F080025A60236C23F48053F6
:102630002364236CD8055EBF236C43F0010323643D
:10264000204600F0D1F823686FF00C021A6023686E
:1026500019685A68C9070FD555060DD51B68D807E4
:102660000AD5236C43F4803323642046FFF782FFAE
:1026700023686FF001021A60236819685A68890696
:102680000DD552010BD5626C6FF0200542F00202AD
:10269000626420461D60FFF76EFF23681D6038BD31
:1026A000806B08B540230364436C43F00403436428
:1026B000FFF761FF08BD0000F7B50023019390F814
:1026C0003C30012B6AD00D6804688A680123092D0B
:1026D00080F83C30AEB22AD906EB4603E7681E3BD1
:1026E0004FF0070E0EFA03FE27EA0E07E760E768D1
:1026F00002FA03F33B43E3604A68062A4FEA820387
:1027000025D81344676B591F1F238B4027EA030307
:102710006363626B06FA01F1114361632D4B9C42C6
:1027200034D0002380F83C30184603B0F0BD276950
:1027300005EB45034FF0070E0EFA03FE27EA0E07DE
:102740002761276902FA03F33B432361D4E70C2A8C
:102750000ED81344216BA3F123021F23934021EAD7
:1027600003032363236B06FA02F21A432263D5E7BD
:102770001344E16A413B1F229A4021EA0202E262CD
:10278000E26A06FA03F11143E162C7E7122D07D1AD
:10279000114A536843F480035360C2E70220C4E740
:1027A0000E4B9D4201D0112DBBD10B494A689D4271
:1027B00042F400024A60B4D1094B0A4A1B68B3FBD9
:1027C000F2F20A2353430193019B002BA9D0019BF2
:1027D000013BF8E7002001400023014012000010F7
:1027E0000000002040420F0070470000074AD368F5
:1027F00023F4E0631B041B0C43F0BF63000243F4AB
:10280000003300F4E0600343D360704700ED00E064
:10281000174B30B5DC68C4F30224C4F10703251D4F
:10282000042B28BF0423062D4FF0010505FA03F3FE
:1028300003F1FF338CBF033C00241940A14005FA8B
:1028400004F4013C2240002842EA01024FEA02124D
:10285000AFBF00F1604000F00F00064BD2B2A5BF41
:1028600000F56140D2B21A5480F8002330BD00BF99
:1028700000ED00E014ED00E04209012300F01F002C
:1028800003FA00F0014B43F82200704700E100E03A
:102890000138B0F1807F0AD2064B074A5860F02118
:1028A00082F823100020072298601A6070470120E8
:1028B000704700BF10E000E000ED00E0044B1A6834
:1028C00004280CBF42F0040222F004021A60704790
:1028D00010E000E00368DAB223F47F7323F003030F
:1028E0001821103AB2FBF1F20449032A88BF0433DD
:1028F000895C8365C165806D704700BF417D0008BC
:1029000070B50446FFF7C2FC0546002C71D00023C9
:1029100084F834302268022384F83530136823F0B9
:102920000103136021680B68D8073CD40B68324D53
:102930006268A0691D40A3681343E26813432269DB
:10294000134362691343E26903431343226A134347
:10295000626A042A43EA050301BF266BE56A354330
:102960002B430B604B69042A23F0070343EA02035D
:102970000BD1A26AE56A13433DB1F8B9012A2DD003
:1029800001D3022A01D1EA012BD44B612046FFF783
:10299000A1FFE26D3F239340836000200123606527
:1029A00084F8353070BDFFF771FC401B0528B9D99C
:1029B00020236365032084F8350070BDB0F5005F07
:1029C00013D1032AE1D801A050F822F0E32900082E
:1029D00087290008E3290008DD290008B5F1C07F38
:1029E000D3D1402363650120E5E7022AF9D9032A00
:1029F000C8E7012070BD00BF3F8010F070B590F8AF
:102A00003440012C36D0012480F8344090F8354011
:102A1000866D012C4FF000054FF0020428D180F89C
:102A2000354004684565256825F480252560636088
:102A30008368402B0EBFA260A160E260C26D08BF38
:102A4000E1603F239340B360236843F016032360A3
:102A5000636943F080036361036C1BB1236843F037
:102A600008032360236843F001032360002070BD46
:102A700080F83450022070BDF7B5002301935A4B03
:102A8000856D1F68C36D2E6808229A401642044661
:102A90000CD001680868400708D5086820F00400D9
:102AA0000860AA60626D42F00102626501229A40EC
:102AB000164208D021684969090641BFAA60626DC3
:102AC00042F00202626504229A40164208D0216850
:102AD0000968880741BFAA60626D42F0040262651E
:102AE00010229A40164210D02368196809070CD5A5
:102AF000AA601A68500335D51B68190301D4236CEA
:102B000000E0A36C0BB120469847E16D20228A407B
:102B1000164238D023681868C60634D5AA6094F8DF
:102B20003520052A1A6825D122F016021A605A6942
:102B300022F080025A61226C0AB9A26C1AB11A689A
:102B400022F008021A603F238B40AB60002384F818
:102B50003430012384F83530236D0BB1204698477B
:102B600003B0F0BD1A68D2055EBF1A6822F00802F1
:102B70001A60C4E7500328D51B68190332D4636C6C
:102B80000BB120469847636D002BE9D0636DDA07DF
:102B900019D50523226884F83530136823F0010322
:102BA00013604FF41653B7FBF3F7019B01339F42B9
:102BB000019302D31368DB07F7D4002384F8343081
:102BC000012384F83530E36CC7E71A6812F4807289
:102BD00008D1196821F010011960012384F834200C
:102BE00084F83530E36BCBE700000020084910B5CE
:102BF0000C6924F440740C610C6944F440740C6159
:102C00000C6944F001040C610260436010BD00BF18
:102C1000003C0240074B1A6922F440721A611A699B
:102C200042F400721A611A6942F001021A610160ED
:102C3000704700BF003C0240074B1A6922F4407203
:102C40001A611A6942F480721A611A6942F001022B
:102C50001A610180704700BF003C0240204BDA68D7
:102C6000D00606D51F49CA6942F01002CA61102277
:102C7000DA60DA68910606D51A49CA6942F0080294
:102C8000CA612022DA60164BDA68520606D5154969
:102C9000CA6942F00402CA614022DA60DA681006AA
:102CA00006D51049CA6942F00202CA618022DA6080
:102CB0000B4BDA68D10507D50A49CA6942F001020F
:102CC000CA614FF48072DA60DA68920706D5054966
:102CD000CA6942F02002CA610222DA60704700BF6E
:102CE000003C0240B8530120064B1A69002ABFBFBE
:102CF000054A5A6002F188325A60BABF1869C00F9B
:102D000000207047003C024023016745034A1369D5
:102D100043F0004313610020704700BF003C0240B5
:102D2000F8B5124B124C00220546DA61FFF7AEFAF5
:102D300026460746E368DA030CD4E368DB0744BFA2
:102D40000123E360F06810F4F97002D0FFF786FF0A
:102D50000120F8BD691CEDD00DB90320F8BDFFF7C7
:102D600095FAC01B8542E5D2F7E700BFB8530120B2
:102D7000003C02402DE9F041204D98462B7E012B6E
:102D800007460E46144635D001234CF250302B76C0
:102D9000FFF7C6FFB0B9CFB9194B1A6922F44072D8
:102DA0001A611A691A611A69E4B242F001021A61E1
:102DB00034704CF25030FFF7B3FF114A136923F01F
:102DC0000103136100232B76BDE8F081012F04D1AC
:102DD000A1B23046FFF730FFEBE7022F04D12146C6
:102DE0003046FFF717FFE4E7224643463046FFF739
:102DF000FDFEDEE70220BDE8F08100BFB8530120F0
:102E0000003C02400C4B1A6922F440721A610329FB
:102E10001A690BD142F4004242F004021A611A69A5
:102E200042F4803242EA0020186170470129F3D051
:102E300042F40042F2E700BF003C024039B10129F0
:102E40001FD002290CBF4FF400714FF440710E4B9C
:102E50001A6922F440721A611A69114319611A69D8
:102E600022F0F8021A611A690B2842F0020288BFA8
:102E7000043042EAC00018611A6942F480321A61D3
:102E800070474FF48071E2E7003C0240144B1A682F
:102E900091050FD51A6822F400721A601A6842F47C
:102EA00000621A601A6822F400621A601A6842F41A
:102EB00000721A600A4B1A6852050FD51A6822F47C
:102EC00080621A601A6842F480521A601A6822F40A
:102ED00080521A601A6842F480621A60704700BF1C
:102EE000003C02402DE9F843254E337E012B044679
:102EF000884642D001234CF250303376FFF710FF62
:102F00000546C0B94FF0FF33C8F800302368012BE5
:102F100016D16168207CFFF775FF4CF25030FFF747
:102F2000FFFE184A136923F4004323F00403054607
:102F30001361FFF7ABFF002333762846BDE8F88323
:102F4000A768DFF84090E368A26813449F42F0D27C
:102F5000217C3846FFF772FF4CF25030FFF7E0FE5D
:102F6000D9F8103023F0FA03C9F8103018B1C8F8B6
:102F700000700546DDE70137E5E70225DDE700BF24
:102F8000B8530120003C02402DE9F04F85B00B689A
:102F9000DFF8C4816E4ADFF8C491019300234FF03B
:102FA000010E019C0EFA03FE0EEA0406B64540F03F
:102FB000B6804C6824F01007022F16D14FEAD30ACE
:102FC00000EB8A0A03F0070BDAF820504FEA8B0B6C
:102FD0004FF00F0C0CFA0BFC25EA0C0C0D6905FAEE
:102FE0000BF545EA0C05CAF820504FEA430A0325C1
:102FF000D0F800B005FA0AF5ED4304F0030C0BEA33
:10300000050B0CFA0AFC013F4CEA0B0C012FC0F82F
:1030100000C011D8876807EA050BCF6807FA0AFCD9
:103020004CEA0B078760476827EA0E0EC4F30017C7
:103030009F4047EA0E074760C7683D408F6807FA20
:103040000AF73D43C560E50069D54FF0000BCDF8A8
:103050000CB0D8F844703F4D47F48047C8F844702E
:10306000D8F8447007F480470397039F23F00307C1
:1030700007F1804707F59C3703F0030CD7F808A049
:103080004FEA8C0C4FF00F0E0EFA0CFEA8422AEA03
:103090000E0E4BD005F58065A84249D005F5806538
:1030A000A84247D005F58065A84245D005F5806562
:1030B000A84243D0484543D005F50065A84241D019
:1030C00005F58065A8423FD005F58065A8423DD052
:1030D00005F58065A84214BF0A25092505FA0CF5F7
:1030E00045EA0E05BD601568F74314F4803F0CBF38
:1030F0003D4035431560556814F4003F0CBF3D401A
:1031000035435560956814F4801F0CBF3D4035432E
:103110009560D568A40254BF3D403543D560013366
:10312000102B7FF43CAF05B0BDE8F08F5D46D5E7CE
:103130000125D3E70225D1E70325CFE70425CDE715
:103140000525CBE70625C9E70725C7E70825C5E715
:10315000003C0140000002400038024000140240E0
:103160000AB1816170470904FBE7F0B506468BB0F0
:10317000002864D00323344680F8B93301F080FF7F
:1031800054F8100B01F024FA0FCC6D460FC50FCC8C
:103190000FC594E8030085E80300371D97E80E008B
:1031A000306801F0D5F90021306801F017FA0021EC
:1031B0003346324606F110040125084682F83810DD
:1031C000D18701310F2982F8395082F83B00106411
:1031D0005064D06402F11C02F0D10022D6F800E065
:1031E000114602F1400083F8F821DA870EEB8000E7
:1031F00001320F2A83F8F91183F8FB11C3F800128A
:10320000C3F80412C3F80C12416003F11C03E8D1A7
:103210000FCC6D460FC50FCC0FC594E8030085E8B1
:103220000300704697E80E0001F0F0F9012386F8DC
:10323000B933306801F00DFD00200BB0F0BD012066
:10324000FBE790F8B833012B10B504460CD00123EE
:1032500080F8B833006801F0F0FC206801F0B2F9A2
:10326000002084F8B80310BD022010BD2DE9F04FF6
:10327000D0F8009087B00446484601F024FD029043
:10328000002840F02E81206801F0EFFC002800F0BB
:103290002881206801F0E9FC850748BF2268206882
:1032A00042BF536903F00203536101F0DEFC10F4E6
:1032B00000250AD0206801F0DCFC09F530660746DD
:1032C000A2460025002F40F00F81206801F0CDFCC0
:1032D00041030BD5206801F0D4FC2646039009F584
:1032E00010680025039B002B40F03F81206801F00F
:1032F000BCFC00280DDAD9F8043823F00103C9F822
:103300000438204601F032FF2268536903F000437D
:103310005361206801F0A9FC06050BD5D9F80838DF
:10332000D80702D5204601F009FF2268536903F44B
:1033300000635361206801F098FCC10437D509F59A
:1033400000667368206823F001037360102101F0A8
:10335000F9F9616809F51063FF220298884240F08C
:1033600092814FF0FF33B361F36943F00113F361CE
:10337000236B002B00F08F81D6F8843043F00B03D1
:10338000C6F88430736C43F00B037364D9F80038CB
:10339000217C206823F4FE63C9F8003804F56F72BD
:1033A00001F0B0FC2268536903F480535361206834
:1033B00001F05BFC82041DD5206801F088FC2068C8
:1033C000C36823F47053C36001F0E5F9002840F0AE
:1033D0006B812268E0604FF400736361D36843F44B
:1033E0001053D360204601F098FE2268536903F41D
:1033F00000535361206801F038FCC3062BD52268C6
:10340000936923F010039361D9F82060C6F3434316
:10341000022B06F00F0840F0A88147F6F0731E4219
:1034200014D01C2707FB0847C6F30A163246D7F804
:103430000412484601F0ABFBD7F804323344C7F816
:103440000432D7F810321E44C7F81062226893691C
:1034500043F010039361206801F007FC070707D5CC
:10346000204601F056FE2268536903F008035361B9
:10347000206801F0FAFBC60208D5E9B2204601F047
:103480007DFE2268536903F480135361206801F0C4
:10349000ECFB800208D5E9B2204601F06BFE226801
:1034A000536903F400135361206801F0DEFB41000F
:1034B00007D5204601F066FE2268536903F0804379
:1034C0005361206801F0D1FB42070AD523685D688B
:1034D0006B0702D5204601F059FE23685A68154350
:1034E0005D6007B0BDE8F08FF80738D55FFA85FB5F
:1034F0005946206801F0CDFB10F0010F804621D025
:10350000216901239942B3600CD13169DAF80002D4
:10351000C1F31201411ACAF81012DAF80412084471
:10352000CAF804025946204601F0E2FD216901294A
:1035300008D13DB9D4F80C2222B904F56F72206885
:1035400001F0E0FB18F0080F04D0204601F0CAFD9E
:103550000823B36018F0100F1CBF1023B3600135AF
:103560007F0820360AF11C0AACE6039BDA0758D51F
:103570005FFA85FB5946206801F095FBC3070746B3
:1035800020D5D9F834380121A94023EA0103C9F82C
:1035900034380123C8F808302369012B01BF736C4C
:1035A000326C9B1873645946204601F0AAFD2169CC
:1035B000012907D135B9E36C23B904F56F7220688E
:1035C00001F0A0FB380744BF0823C8F80830F9060B
:1035D00044BF1023C8F808307A0644BF4023C8F817
:1035E0000830BB0744BF0223C8F808303F0618D58F
:1035F00023680493F76C336DFF1A336C9F4228BF26
:103600001F46049B03F5106307F1030A03EB451300
:103610004FEA9A0A0593059B9B699BB2534508D8CC
:103620002FB3039B5B08013503931C3608F1200878
:1036300058E6326DF36C9342F2D9002BF0D0376C20
:1036400004989B1A9F4228BF1F46237C00935A462A
:10365000BBB2716C01F087FA736C3B447364336DD9
:1036600007F1030A3B444FEA9A0A3365D3E7049B08
:10367000012203F5006BD3F83438AA4023EA020391
:10368000CBF83430CDE702989A600130C3F80822B5
:103690000290203361E6736943F00B037361336971
:1036A00043F00B03336171E60323E360402363615E
:1036B00000F044FC344B354A03449342236804D859
:1036C000DA6842F47052DA608CE6314A31490244D9
:1036D0008A4203D8DA6842F46052F4E7A0F5740233
:1036E0002D49A2F510528A4203D8DA6842F45052AA
:1036F000E9E7A0F183722949A2F5E7428A4203D89B
:10370000DA6842F44052DEE7254A264902448A42FA
:1037100003D8DA6842F43052D5E7234A23490244F9
:103720008A4203D8DA6842F42052CCE7204A214981
:1037300002448A4203D8DA6842F41052C3E7A0F187
:10374000B7721D49A2F558528A4203D8DA6842F48A
:103750000052B8E7194A1A4902448A42DA6894BF0B
:1037600042F4E05242F4C052ADE7062B7FF46EAE55
:10377000082204F56F7148461C2701F008FA07FB80
:103780000847C6F30A165CE6405327FFFF340C00D7
:10379000401E1BFF3F420F007F4F12001FD6130039
:1037A00060B6E5FE5FE3160000D3CEFE3F771B0058
:1037B000C05BB3FEBF9121001F753800E05459FE75
:1037C000DF9C410090F8B833012B10B5044609D0B6
:1037D000012380F8B833006801F01FFA002084F854
:1037E000B80310BD022010BD70B54EB2002E0446C5
:1037F0004FF01C0501F07F00B5BF05FB004105FB44
:103800000141383101F5FC71C0B2002EB8BFC8804B
:10381000022BCB704FEAD67504BF00230B710870E2
:103820004D7094F8B8338A60012B09D0012384F8D5
:10383000B833206800F0CAFF002084F8B80370BDD8
:10384000022070BD4BB2002B10B54FF01C02044695
:1038500001F07F00B5BF02FB004102FB014138319E
:1038600001F5FC71DB0F08704B7094F8B833012B35
:1038700009D0012384F8B833206800F0E6FF002067
:1038800084F8B80310BD022010BD38B501F07F05E3
:103890001C2404FB050104FB050401F5FC71C4F8BC
:1038A0000C320023C4F80422C4F8103284F8F93131
:1038B00084F8F85103690068012B08BFC4F8082296
:1038C000DAB21DB901F0E2F8002038BD01F018F8B5
:1038D000FAE71C2301F00F0103FB0101B1F810020C
:1038E000704738B501F07F051C2404FB050104FB7B
:1038F00005043831E364002323650123626484F8FE
:10390000393084F8385003690068012B08BFA2647D
:10391000DAB21DB901F0BAF8002038BD00F0F0FFAE
:10392000FAE738B54BB2002B01F07F054FF01C02CF
:10393000B5BF02FB050102FB0101383101F5FC7145
:103940000122DB0FEDB28A700D704B7090F8B83326
:10395000934204460FD080F8B823006801F025F99F
:103960002DB904F56F72217C206801F0CBF900209D
:1039700084F8B80338BD022038BD38B54BB2002BEF
:1039800005464FF01C0201F07F00B5BF02FB00515D
:1039900002FB0151383101F5FC71DB0F00248C7002
:1039A00008704B7095F8B833012B09D0012385F8C6
:1039B000B833286801F018F985F8B843204638BDB7
:1039C000022038BD006870B5436A21B943EA02435A
:1039D0008362002070BD846A002503EB14434E1EF1
:1039E000ECB2B44205F1010506DB3F3100EB81008A
:1039F00043EA02434360ECE7403400EB840464682C
:103A000003EB1443ECE703680020596270470000A1
:103A10002DE9F341044618B9012002B0BDE8F08158
:103A20000368DD0710D42368980758D423681A0761
:103A300000F19A8023685B0700F1B880A269002A30
:103A400040F019810020E8E7A64B9A6802F00C02CA
:103A5000042A07D09A6802F00C02082A0AD15B688F
:103A6000590207D59F4B1B689A03DCD56368002B6E
:103A7000D9D1D1E763689B4DB3F5803F11D12B6855
:103A800043F480332B60FEF701FC964D06462B680D
:103A90009B03C8D4FEF7FAFB801B6428F7D90320E8
:103AA000BBE7B3F5A02F04D12B6843F480232B6030
:103AB000E5E72A6822F480322A602A6822F480220C
:103AC0002A60002BDFD1FEF7E1FB06462B689F033F
:103AD000A9D5FEF7DBFB801B6428F7D9DFE7814B14
:103AE0009A6812F00C0F07D09A6802F00C02082AAC
:103AF00011D15B685E020ED47A4B1A68950702D525
:103B0000E268012A88D11A68216922F0F80242EAA3
:103B1000C1021A608AE7E268734BB2B101221A60EF
:103B2000FEF7B4FB6F4D06462B68980707D52B6848
:103B3000226923F0F80343EAC2032B6076E7FEF71D
:103B4000A5FB801B0228EFD9A9E71A60FEF79EFBB0
:103B5000644D06462B6899077FF568AFFEF796FB24
:103B6000801B0228F6D99AE76269604B7AB101227C
:103B70001A60FEF78BFB5B4D06466B6F9F073FF5A8
:103B800059AFFEF783FB801B0228F6D987E71A603E
:103B9000FEF77CFB534D06466B6F98077FF54AAFE7
:103BA000FEF774FB801B0228F6D978E74D4B1A6CA0
:103BB00012F0805228D101921A6C42F080521A649D
:103BC0001B6C03F080530193019B0126484D2B6829
:103BD000D9051BD5A368434D012B27D12B6F43F08B
:103BE00001032B67FEF752FB3E4D074641F2883832
:103BF0002B6F9B0739D5002E3FF420AF394A136C49
:103C000023F08053136419E70026DFE72B6843F4A1
:103C100080732B60FEF73AFB07462B68DA05D9D490
:103C2000FEF734FBC01B0228F7D938E7052B04D177
:103C30002B6F43F004032B67D0E72A6F22F00102B9
:103C40002A672A6F22F004022A67002BCAD1FEF7E6
:103C50001DFB41F2883807462B6F9807CBD5FEF73E
:103C600015FBC01B4045F7D919E7FEF70FFBC01B3A
:103C70004045BDD913E71B4DAB6803F00C03082B7F
:103C80003FF4CAAE1B4E0023022A336034D1FEF744
:103C9000FDFA07462B6899011ED4226AE369134393
:103CA000626A43EA8213E26A43EA0263A26A0D4C43
:103CB0005208013A43EA02436B6001233360FEF786
:103CC000E5FA054623689A013FF5BCAEFEF7DEFA39
:103CD000401B0228F6D9E2E6FEF7D8FAC01B0228FC
:103CE000D8D9DCE60038024000004742800E474247
:103CF0000070004060004742FEF7C8FA04462B6897
:103D00009B017FF59FAEFEF7C1FA001B0228F6D992
:103D1000C5E600BF70B50D4688B01646204CF0B918
:103D20000190236B43F001032363236B059003F0A1
:103D300001030193019B07904FF4807303930223C7
:103D4000049303A9032317480693FFF71DF9A168FD
:103D500021F0EC6131432943A16008B070BD00231C
:103D60000293226B104842F004022263226B0593F7
:103D700002F004020292029A07934FF40072039237
:103D80000222049203A903220692FFF7FDF8A3681A
:103D900045EAC60123F078450D43A560DDE700BF85
:103DA000003802400000024000080240134908B5F4
:103DB0008B6803F00C03042B03D0082B03D01048AE
:103DC00008BD104808BD4A684B68496813F4800371
:103DD00014BF0C480A48C1F3881118BF002302F031
:103DE0003F02A1FB0001FCF7BBFE044B5B68C3F381
:103DF000014301335B00B0FBF3F008BD0038024023
:103E00000024F40000127A002DE9F0410D4604462A
:103E100010B90120BDE8F081444B1A6802F00F028E
:103E20008A4228D321688F072DD4C80740D43F4B3E
:103E30001A6802F00F02954266D3226851076CD4CB
:103E4000130707D53A4A2169936823F4604343EA8C
:103E5000C1039360FFF7AAFF354B364A9B68C3F353
:103E60000313D35CD840344B18600020FDF75AFD93
:103E70000020BDE8F081CAB21A701B6803F00F037E
:103E80009942C6D1CEE72A4B11F0040F1EBF9A68A3
:103E900042F4E0529A600E0742BF9A6842F46042D0
:103EA0009A609A68A06822F0F00202439A60BCE728
:103EB00062681F4B012A1DD11B6813F4003FA8D074
:103EC0001B4EB36823F003031343B360FEF7DEF920
:103ED00041F288380746B368626803F00C03B3EB1D
:103EE000820FA4D0FEF7D2F9C01B4045F3D90320BE
:103EF000BDE8F081911E01291B6802D813F0007FF4
:103F0000DDE713F0020FDAE7EAB21A701B6803F07C
:103F10000F039D427FF47DAF8FE70549E0688B6812
:103F200023F4E05303438B608AE700BF003C024068
:103F3000003802406D7C000800000020014B18682A
:103F4000704700BF00000020044B054A9B68C3F384
:103F50004233D35C034A1068D840704700380240AF
:103F60007D7C0008000000200F2303600B4B9A6843
:103F700002F0030242609A6802F0F00282609A68DE
:103F800002F4E052C2609B68DB0803F4E053036173
:103F9000034B1B6803F00F030B60704700380240AF
:103FA000003C0240036A23F001030362036A426893
:103FB00070B584690D6824F0730425438C6823F080
:103FC000020323430C4CA04209D004F58064A042B4
:103FD00005D042604A6885614263036270BDCC6867
:103FE0008E6923F0080323434C6922F44072344362
:103FF00023F004032243ECE700000140036A23F4AA
:1040000080730362036A426870B5C4690D6824F066
:10401000730425438C6823F4007343EA04230E4C95
:10402000A04209D004F58064A04205D042604A68ED
:10403000C561C263036270BDCC688E6923F40063FE
:1040400043EA04234C6922F44052344323F480634E
:1040500042EA0412EAE700BF00000140036A23F4C9
:104060008053036230B5046A4368C2690D6822F464
:10407000E64242EA05228D6824F4005444EA0534FD
:10408000094DA84209D005F58065A84205D04360D6
:104090004B68C2610364046230BD4D6923F4804300
:1040A00043EA8513F3E700BF000001400368DA68C4
:1040B00042F00102DA601A6842F001021A60002040
:1040C00070470368DA6822F00102DA60196A41F287
:1040D0001112114208D1196A40F24442114202BF42
:1040E0001A6822F001021A6000207047704770477A
:1040F000704703681A69910710B504460ED5DA684F
:1041000092070BD56FF002021A619B6901229B078F
:10411000027677D0FFF7EBFF0023237623681A6936
:10412000500710D5DA6851070DD56FF004021A61F7
:104130009B69022213F4407F2276204668D0FFF765
:10414000D6FF0023237623681A6912070FD5DA6891
:1041500010070CD56FF008021A61DB690422990779
:10416000227620465AD0FFF7C2FF00232376236829
:104170001A69D20610D5DA68D0060DD56FF0100294
:104180001A61DB69082213F4407F227620464BD067
:10419000FFF7ADFF0023237623681A69D10708D5FE
:1041A000DA68D20705D56FF001021A612046FCF7E4
:1041B00027FF23681A69100608D5DA68110605D5A5
:1041C0006FF080021A61204600F0C1F923681A6975
:1041D000520608D5DA68500605D56FF040021A611C
:1041E0002046FFF785FF23681A69910622D5DA6811
:1041F00092061FD56FF0200220461A61BDE81040DC
:1042000000F0A4B9FFF772FF2046FDF7DBFC83E75F
:10421000FFF76CFF2046FDF7D5FC92E7FFF766FF3E
:104220002046FDF7CFFCA0E7FFF760FF2046FDF733
:10423000C9FCAFE710BD00002E4A0368904212D0BF
:10424000B0F1804F0FD0A2F57C4290420BD002F526
:104250008062904207D002F58062904203D002F55E
:10426000784290421DD14A6823F070031343214ADB
:10427000904204D1CA6823F44073134328E0B0F19C
:10428000804FF7D01C4A9042F4D002F580629042F1
:10429000F0D002F580629042ECD002F57842904274
:1042A000E8D0164A9042E5D002F580629042E1D013
:1042B00002F580629042DDD0A2F598329042D9D0CA
:1042C00002F580629042D5D002F580629042D1D052
:1042D00003608B68C3620B688362064B984206D00A
:1042E00003F58063984202D00123436170470B6954
:1042F0000363F9E700000140000400400040014072
:1043000010B50446A0B190F8393003F0FF021BB994
:1043100080F83820FDF7FEF9022384F83930206850
:10432000211DFFF789FF012384F83930002010BDDB
:10433000012010BD10B50446A0B190F8393003F04B
:10434000FF021BB980F83820FDF764F9022384F8D6
:1043500039302068211DFFF76FFF012384F83930C1
:10436000002010BD012010BD036A23F0100303627A
:10437000036A426870B584690D6824F4E64444EA2F
:1043800005258C6823F0200343EA04130D4CA0425A
:1043900009D004F58064A04205D042604A68856176
:1043A0008263036270BDCC688E6923F0800343EAA8
:1043B00004134C6922F44062344323F0400342EA80
:1043C0008402EAE70000014038B590F83830012B4C
:1043D00004464FF0020025D0012384F8383084F8D9
:1043E00039000C2A18D8DFE802F0071717171E1734
:1043F00017172F17171740002068FFF7D3FD236802
:1044000009699A6942F008029A619A6922F00402E5
:104410009A619A690A439A610123002084F839302D
:1044200084F8380038BD2068FFF79EFF23680969CB
:104430009A6942F400629A619A6922F480629A61F0
:104440009A6942EA0122E6E72068FFF7D7FD236870
:104450000969DA6942F00802DA61DA6922F00402D5
:10446000DA61DA690A43DA61D6E72068FFF7F6FD18
:1044700023680969DA6942F40062DA61DA6922F4D0
:104480008062DA61DA6942EA0122ECE7036A10B578
:1044900001248C4023EA04030362036A8A401A431E
:1044A000026210BD10B5044601220068FFF7EEFF5E
:1044B0002368084A934203D002F58062934203D1F5
:1044C0005A6C42F400425A641A6842F001021A60BF
:1044D000002010BD0000014010B504460C290DD885
:1044E000DFE801F0070C0C0C220C0C0C270C0C0C58
:1044F0002C000268D36843F00203D36001222068D5
:10450000FFF7C4FF2368104A934203D002F580628C
:10451000934203D15A6C42F400425A641A6842F042
:1045200001021A60002010BD0268D36843F0040342
:10453000E3E70268D36843F00803DEE70268D36864
:1045400043F01003D9E700BF0000014070477047F7
:1045500084B038B505AD85E80E000A9B012B0446F2
:1045600026D1836B23F480338363C36823F48403ED
:1045700023F04003C360C36823F44013C360119B5E
:10458000012B02BFC36843F48013C36000F0DEFB5D
:10459000089B012B07D1A36843F00603A360A3681F
:1045A00043F02003A360BDE83840002004B070470A
:1045B000C36843F04003C36000F0C8FB4FF480338E
:1045C000A363E5E7836843F001038360002070473D
:1045D000836823F0010383600020704708B5C36837
:1045E000012923F0C043C36008D1C36843F00053DE
:1045F000C3603220FDF750FE002008BD0029F8D12D
:10460000C36843F08043C360F3E7000084B02DE942
:10461000F041044607A880E80E00119E0A9FA36B94
:104620008846A6B943F40013A3630023C4F8003EF0
:10463000D4F80038C4F800380C9B012B04F5006551
:104640005ED1099939B9204600F09EF807E043F49D
:104650000023A363E9E71946204600F095F81021EE
:10466000204600F06FF8204600F07EF800234FF05F
:10467000FF322B6119466B614FF09040AA614FF0F9
:10468000FF0EEB6104F5106243453BD1002104F5B8
:10469000306208464FF0904E4FF0FF0C8B423ED1F7
:1046A0002B69012F23F480732B6108D1234B2B63DB
:1046B0002B6B43F4803343F003032B632B6B0023FA
:1046C000A3616FF0804363611FB9A36943F01003D6
:1046D000A361A2691A4B1343A3610D9B1BB1A3698C
:1046E00043F00803A361012E01BFA36943F0804397
:1046F00043F00403A361BDE8F041002004B070471B
:104700000321A0E7D2F800C0BCF1000FB4BF1060D5
:10471000116001331161C2F808E02032B4E7D2F829
:104720000080B8F1000FB4BFC2F800E010600131A2
:104730001061C2F808C02032B0E700BF000180005D
:1047400000383C80890141F02001064A0161013AAC
:1047500005D0036913F02003F9D1184670470320F0
:10476000704700BF410D03001023064A0361013A60
:1047700005D0036913F01003F9D1184670470320E0
:10478000704700BF410D0300D0F800381943C0F84E
:1047900000180020704700F50062D0F8080810F0FB
:1047A000060012D0936803F00603022B0CD0936826
:1047B00003F00603062B07D0936803F00603042BCF
:1047C00014BF0020022070470320704730B54B789B
:1047D0000C78D0F81C5800F50062012B1BD1A340C7
:1047E0009BB22B4300F51060D36100EB44131A68B1
:1047F00012040ED48A68C8781D68C2F30A0242F017
:10480000805242F4004242EA804040EA8450284309
:104810001860002030BD4FF48033A34000F53060B5
:104820002B4300EB4410D36103681B04F1D48B6865
:10483000C9780268C3F30A0343F0805343F400438A
:1048400043EA814313430360E3E700F001B800004B
:1048500070B54B78012B0E46054609784FF02003C2
:1048600026D100F5106213FB01231A6822F40042DE
:104870001A604FF000621A604FF080421A601F4ABF
:10488000013A01D1032070BD9C6814F08044F7D137
:1048900010212846FFF756FF3178D5F81C28012350
:1048A0008B409BB222EA0303C5F81C38204670BD3A
:1048B00000F5306213FB01231A6822F400421A60EB
:1048C0004FF000621A604FF080421A600B4A013AC2
:1048D000D8D0986810F01000F9D1D5F8043843F416
:1048E0008063C5F80438D5F81C384FF480328A400C
:1048F00023EA0203C5F81C3870BD00BF410D030058
:10490000F7B54B780C78012B4B6977D1202600F551
:10491000106516FB04542669002B38D126F0FF568B
:1049200026F4C0162661266946F40026266126690B
:10493000F60CF6042661012A50D10C780E6905EBBD
:1049400044146661CE78012E0FD1D0F808480F7854
:1049500014F4807F4FF0200414FB075427680CBF29
:1049600047F0005747F0805727600F7805EB471551
:10497000012E2C6844F004442C6005D100929BB2B7
:104980003A46C96800F0EFF8002003B0F0BDF60C1D
:10499000F604266126698F6826F0FF5626F4C016B5
:1049A0002661DE19013EB6FBF7F7374ED4F810E06A
:1049B00006EAC74646EA0E0626612769C3F31206D1
:1049C0003E432661CE78012E5AD1266926F0C04694
:1049D0002661266946F000562661ACE7CE78012EA6
:1049E000B3D0002BAED091F800E0D0F83478012499
:1049F00004FA0EF43C43C0F83448A3E700F53065F0
:104A000005EB44142569ED0CED042561256925F0BD
:104A1000FF5525F4C01525618D68FBB92369C5F3E1
:104A200012051D432561236943F400232361012AF4
:104A300004BFCB686361CB78012B0AD1D0F808386A
:104A400013F4807F23680CBF43F0005343F080537E
:104A50002360236843F00443236095E70A4E2769E7
:104A60002B44013BB3FBF5F306EAC3463E43266104
:104A70009BB226695D43C5F3120535432561D6E730
:104A8000012AAED159E700BF0000F81F4B78012B77
:104A900070B50B784D6943D1202400F5106614FBE6
:104AA00003631C69CDB924F0FF5424F4C0141C61C5
:104AB0001C6944F400241C611C69E40CE4041C61BE
:104AC0000D7806EB4513012A1C6844F004441C6071
:104AD0001BD10A695A61002070BDE40CE4041C611A
:104AE0001C6924F0FF5424F4C0141C618C68A54296
:104AF00088BF4C611C6944F400241C614C691D6929
:104B0000C4F312042C431C61DAE74B69002BE2D09A
:104B1000D0F834280123AB401343C0F83438DAE727
:104B200000F5306000EB43100369DB0CDB0403612C
:104B3000036923F0FF5323F4C01303618B6805B1AD
:104B40004B61046944F4002404610469C3F3120353
:104B50002343012A036104BFCB684361036843F028
:104B600004430360B7E710B59DF808404CB9033320
:104B700000F5805023F0030300EB02320B4499420E
:104B800001D1002010BD51F8040B1060F7E703328B
:104B900022F003020A4400F58050914201D10846F8
:104BA0007047036841F8043BF7E74B780A78012B1C
:104BB0004FF020030BD100F5106013FB02000368D7
:104BC000002B0BDB036823F08043036006E000F555
:104BD000306013FB02000368002BF3DA036843F430
:104BE00000130360002070474B780A78012B0CBF3C
:104BF00000F5106000F53060202313FB020003680D
:104C000023F400130360CB78023B012B9EBF0368A3
:104C100043F08053036000207047D0F8003823F43D
:104C2000FE63C0F80038D0F80038090101F4FE61D5
:104C30001943C0F800180020704708B5D0F80438B0
:104C400023F00203C0F804380320FDF725FB002001
:104C500008BD08B5D0F8043843F00203C0F80438A2
:104C60000320FDF719FB002008BD42698069104050
:104C70007047D0F8183800F50060C0691840000C83
:104C80007047D0F8183800F50060C069184080B24D
:104C9000704700F5306303EB411100F500608A684E
:104CA00040691040704710B5D0F81048D0F834383B
:104CB00000EB4110CB4000F51060DB018068DBB2F7
:104CC0002343184010BD406900F001007047D0F840
:104CD000003923F4FF6323F00703C0F8003900F51F
:104CE00000639A6802F00602042A02BFD0F8002985
:104CF00042F00302C0F800295A6842F480725A60F8
:104D00000020704710B50024C0F8104BD0F8104BAD
:104D100044F40024C0F8104BD0F8104B44F01804B1
:104D2000C0F8104BD0F8104B012900F5306344F067
:104D3000C04408BF4FF08023C0F8104B04BFC0F838
:104D4000142BC0F8003B002010BD00000A4B013BB3
:104D500001D1032070470269002AF8DA0369064A84
:104D600043F001030361013AF3D0036913F0010337
:104D7000F9D11846704700BF410D0300D0F8183232
:104D80001BB10020C3F81402704702207047D0F80E
:104D90001C3210B5D0F818425BB194F80002FF281D
:104DA00007D09B6894F8012221469847FF2384F896
:104DB0000032002010BD00004323038000487047EC
:104DC00040000020432303800048704784000020F7
:104DD0004323038000487047D40000200A23038047
:104DE00000487047C800002038B50546D0F8184282
:104DF00000F08AFAD5F81832C4F80C024BB1D5F895
:104E00001C32D4F80402DB6804F5037198470020D3
:104E100038BD022038BD0000F8B50F7817F06003E8
:104E200006460C4623D0202B19D1CA884B78C2B134
:104E30003906D0F818520BD5D0F81C1218468F68D6
:104E40002946B847E2882946304600F095FD06E03D
:104E500085F8003285F80122294600F0A2FD0020E5
:104E6000F8BDD0F81C0284681846A047F7E74B78D5
:104E70000A2BF4D101220149E7E700BF24100020EA
:104E800010B58121044600F0D7F90121204600F039
:104E9000D3F98221204600F0CFF9D4F8183253B16B
:104EA000D4F81C325B689847D4F8180202F0B8FABC
:104EB0000023C4F81832002010BDF8B5037C044666
:104EC0007BBB4FF400730222812100F0A5F94FF45F
:104ED000007302220121204600F09EF908230322DC
:104EE0008221204600F098F94FF4077002F090FA02
:104EF0000646C4F8180220B3D4F81C321B68984741
:104F0000277C0025C6F81452C6F8185287B94FF40A
:104F10000073D6F804220121204600F0E7F9384654
:104F2000F8BD40230222812100F076F94023D0E72A
:104F30004023D6F804220121204600F0D7F9284664
:104F4000F8BD0120F8BD19B1C0F81C12002070474F
:104F500002207047D0F818320020C3F80812C3F8B6
:104F600010227047D0F818320020C3F8041270479E
:104F7000D0F8182210B572B1D2F81442012364B9E6
:104F8000C2F814328121B2F81032D2F8082200F0AF
:104F90009FF9204610BD022010BD184610BDD0F864
:104FA000182210B562B1047C44B94FF40073D2F8F2
:104FB0000422012100F09AF9002010BD4023F6E7F9
:104FC000022010BD10B5094C09490022204600F00E
:104FD000A1F90849204600F0B2F920460649FFF73A
:104FE000B2FF2046BDE8104000F0B0B9D853012010
:104FF0002801002008000020180100200020704730
:105000000020704770B5084D04460E4601462846FC
:10501000FFF7A8FF2846FFF7C2FF20463146FDF7FD
:10502000CDF8002070BD00BFD853012010B5064C4C
:10503000064900222046FFF78DFF05492046FFF76D
:1050400091FF002010BD00BFD85301207C560120E5
:10505000FC55012010B5094CD4F81832D3F814329D
:105060000A4643B901462046FFF774FF2046BDE8D3
:105070001040FFF77DBF012010BD00BFD8530120B5
:1050800010B50368B3F1A04F86B025D14FF4C053DB
:1050900001930223029303230024049301A90A230A
:1050A0000E4805930394FDF76FFF0D4B5A6B42F0CA
:1050B00080025A6300945A6C42F480425A645B6CDA
:1050C00003F480430093432022460521009BFDF713
:1050D0009FFB4320FDF7D0FB06B010BD000002404F
:1050E0000038024000F56F71D0F8EC0300F045B9CC
:1050F0001C2303FB0103D0F8EC03D3F8042200F0D7
:1051000069B91C2303FB0103D0F8EC035A6C00F0CF
:1051100093B9D0F8EC0300F00FBA10B5C16804469B
:10512000003118BF0121D0F8EC0300F0F3F9D4F8F6
:10513000EC03BDE8104000F0CEB9000010B5044605
:10514000D0F8EC0300F0E9F92268D2F8003E43F011
:105150000103C2F8003E236A23B1034A136943F0F6
:105160000603136110BD00BF00ED00E0D0F8EC03B2
:1051700000F0DCB9D0F8EC0300F0ECB9D0F8EC03A7
:1051800000F0E6B9D0F8EC0300F0E6B9D0F8EC0393
:1051900000F0E4B908B5027852BB164B0421C3F8FD
:1051A000EC03C0F820324FF0A04083E80300022156
:1051B0001846D9601A615A619961DA611A625A62B5
:1051C000DA621A63FDF7D1FF20B14FF4A5710A48E6
:1051D000FBF77AFF80210748FEF715FC40220021EB
:1051E0000448FEF7EFFB802201210248FEF7EAFBAC
:1051F000002008BD7C5A01204D7D000808B5D0F87C
:105200002002FEF71EF803289ABF024B185C02200A
:1052100008BD00BF497D000810B51C46D0F820022B
:1052200013462246FEF7E0FA03289ABF014B185CAA
:10523000022010BD497D000808B5D0F82002FEF715
:1052400001FB03289ABF024B185C022008BD00BF77
:10525000497D000808B5D0F82002FEF762FB03285C
:105260009ABF024B185C022008BD00BF497D0008B0
:1052700008B5D0F82002FEF780FB03289ABF024B46
:10528000185C022008BD00BF497D000811F0800FA6
:10529000D0F820324FF01C021BBF01F07F0102FB4F
:1052A000013102FB013191F83A0008BF91F8FA018F
:1052B0007047000008B5D0F82002FEF783FA0328F3
:1052C0009ABF024B185C022008BD00BF497D000850
:1052D00008B5D0F82002FEF704FB03289ABF024B62
:1052E000185C022008BD00BF497D000808B5D0F851
:1052F0002002FEF7CAFA03289ABF024B185C02206C
:1053000008BD00BF497D000808B5D0F82002FEF7AF
:10531000E0FA08BD08B580B1D0F8143213B100230B
:10532000C0F8143209B1C0F81012012380F8FC3122
:105330000270FFF72FFF002008BD022008BD19B141
:10534000C0F81412002070470220704708B5FFF71C
:1053500055FF002008BD08B5D0F814320BB9022063
:1053600008BD1B6898470028F9D108BD08B5D0F8DA
:1053700014325B689847002008BD38B5044600F534
:105380000275284600F075FA012394F80812C4F853
:10539000F431B4F80E32C4F8F83101F01F03012BD8
:1053A0000ED007D3022B10D001F080012046FFF76A
:1053B00051FF03E02946204600F0E6F8002038BD02
:1053C0002946204600F0DAF9F8E72946204600F0A1
:1053D000EDF9F3E738B50446154611BBD0F8F431C2
:1053E000032B0FD1D0F80C31D0F8102193420BD9F8
:1053F0009B1A9A4228BF1A46C0F80C3192B229462D
:1054000000F0DEFA002038BDD0F814321B6923B159
:1054100090F8FC21032A00D19847204600F0D8FAE2
:10542000F0E7D0F814329B69002BEBD090F8FC2108
:10543000032AE7D19847E5E770B5134604460E46C0
:1054400000293DD1D0F8F421022A0FD1C569026AA2
:10545000954214D9AA1AC261194692B200F099FA7B
:1054600033461A4619462046FFF740FF94F80032AB
:10547000012B02D1002384F80032002070BD836923
:10548000B3FBF2F502FB153565B99A420AD8D0F89C
:10549000F821934206D22A4600F07BFAC4F8F8516C
:1054A0002B46DEE7D4F81432DB682BB194F8FC21EC
:1054B000032A01D120469847204600F094FAD5E708
:1054C000D0F814325B69002BD7D090F8FC21032A66
:1054D000D3D19847D1E738B500220446114640257C
:1054E0004023FFF799FE2B46C4F81051002280217B
:1054F0002046FFF791FE012384F8FC31D4F81832DE
:1055000025622BB1D4F8143221795B682046984784
:10551000002038BD01740020704790F8FC3180F8FD
:10552000FD31042380F8FC310020704790F8FD31F4
:1055300080F8FC310020704708B590F8FC21032A60
:1055400004D1D0F81432DB6903B19847002008BDBC
:1055500000207047002070470020704708B50122E6
:1055600080F8FC21D0F8142201795268904700207D
:1055700008BD10B580210446FFF76CFE20460021CF
:10558000BDE81040FFF766BE37B54B7804460D46C0
:10559000092B79D8DFE813F0C900E5007800D900BD
:1055A00078006D000A007800B9008D004B881A0A57
:1055B000013A062A68D8DFE802F0041C2967674927
:1055C0005200D0F810321B68207C0DF1060198477C
:1055D000BDF80620002A67D0EB88002B64D09A42E1
:1055E00028BF1A46ADF806200146204600F0C4F94F
:1055F0005AE0027CD0F8143232B99B6A0DF10600F1
:10560000984702234370E3E7DB6AF7E7DBB2052B39
:105610003AD8DFE803F003070B0F1317D0F8103266
:105620005B68D1E7D0F810329B68CDE7D0F8103234
:10563000DB68C9E7D0F810321B69C5E7D0F8103233
:105640005B69C1E7D0F810329B69BDE7037CDBB929
:10565000D0F814320DF106005B6B9847B8E7037C75
:1056600093B9D0F814320DF106001B6B984707234D
:10567000C8E78B8843B9CB8833B990F8FC318D7873
:10568000032B05F07F0503D12046FFF772FF0BE0E7
:1056900080F8FE512946FFF70DFE204600F098F9EC
:1056A0002DB1022384F8FC31002003B030BD01236A
:1056B000F8E78978304D01292970E5D890F8FC3158
:1056C000022B0CD0032BDFD1B1B9022380F8FC31BF
:1056D0004160FFF74BFE204600F07AF9E4E700292D
:1056E000F9D001210323416080F8FC312046FFF707
:1056F00032FE0228EFD1C7E741680129EBD0C9B2D9
:10570000FFF734FE29786160F0E7CA88012ABBD12F
:1057100090F8FC31022B03D0032BB5D1011D64E7B7
:105720000146002341F8083F5FE790F8FC31023B57
:10573000012BA9D80123C360D0F804320BB1032395
:10574000C360022204F10C014FE74B88012BABD15F
:10575000C4F80432D4F8143229469B68204698478E
:10576000B9E790F8FC31023B012B8DD84B88012B17
:105770009AD10023ECE700BF2510002038B590F83F
:10578000FC31032B04460D460DD10B79012B0AD8B1
:10579000D0F814329B689847EB8813B9204600F084
:1057A00017F9002038BDFFF7E4FEFAE770B50A7874
:1057B0008E8802F06002202A04460D46F3B205D11D
:1057C000D0F814329B689847002070BD4A78012AAF
:1057D0001CD02AD3032AF7D190F8FC21022A40D00A
:1057E000032A02D0FFF7C5FEEEE74A8822B95E061B
:1057F00002D01946FFF72EFDD4F8143229469B68D3
:1058000020469847204600F0E3F8DDE790F8FC21B9
:10581000022A26D0032AE5D14A88002AD4D1590683
:10582000F0D01946FFF724FDE6E790F8FC21022AA4
:1058300017D0032AD6D103F07F0516F0800F00EBB6
:105840000515194614BF143505F58275FFF71EFDC1
:1058500068B101232B6002222946204600F08CF813
:10586000B2E75A06B0D01946FFF7F4FCACE728605F
:10587000F1E70B7803704B784370CA788B7803EBB1
:10588000022343804A790B7903EB02238380CA7990
:105890008B7903EB0223C380704730B588B105468E
:1058A0002B1A15F8014BDBB2002CF9D15B00023347
:1058B00013800B7003234B700138022310F8015F33
:1058C00005B930BD5A1CD2B2CD540233DBB28C5470
:1058D000F4E7000012230B800048704744010020C9
:1058E00004230B80004870475801002010B5044C79
:1058F00004480A462146FFF7D0FF204610BD00BFEE
:105900006C5E0120A67D000810B5044C04480A46D0
:105910002146FFF7C2FF204610BD00BF6C5E01208C
:10592000B97D000810B5044C04480A462146FFF72B
:10593000B4FF204610BD00BF6C5E0120CF7D000883
:1059400010B5044C04480A462146FFF7A6FF20463E
:1059500010BD00BF6C5E01208D7D000810B5044CA9
:1059600004480A462146FFF798FF204610BD00BFB5
:105970006C5E0120987D000810B513460222C0F825
:10598000F42183610A46C3610021FFF7A1FC0020D6
:1059900010BD08B513460A460021FFF799FC002008
:1059A00008BD10B513460322C0F8F421C0F8083131
:1059B0000A46C0F80C310021FFF798FC002010BD0A
:1059C00008B513460A460021FFF790FC002008BDE9
:1059D00008B50423C0F8F43100231A461946FFF72E
:1059E00077FC002008BD08B50523C0F8F43100237A
:1059F0001A461946FFF77AFC002008BD08B500F0EA
:105A000025FF002008BD30B5B0F90840028A0B46DA
:105A100090E8220085B0842C14BF0334002403A82E
:105A200001900094284600F0A5FD01280CBF0398C2
:105A3000002005B030BD08B5002808BF012000F0E7
:105A4000D1FE002008BD08B501F002FB012803D0FB
:105A5000BDE8084000F0EEB908BD00F1080343605E
:105A60004FF0FF32C3600361002382600360704720
:105A700000230361704743684B609A688A609A68A4
:105A800051609960036808610133036070470A68D8
:105A9000531C30B50AD103695A684A6091608B6023
:105AA0005960036808610133036030BD00F10803E9
:105AB0005C682568AA42EFD32346F9E7416882680B
:105AC00003698A60826851605968884208BF5A60D9
:105AD00000220261186801381860704710B50F4B3A
